:020000040800F2
:1000000000800120050300089903000899030008F7
:100010009903000899030008990300089903000850
:100020009903000899030008990300089903000840
:100030009903000899030008990300089903000830
:100040009903000899030008990300089903000820
:100050009903000899030008990300089903000810
:100060009903000899030008990300089903000800
:1000700099030008990300089903000899030008F0
:1000800099030008990300089903000899030008E0
:1000900099030008990300089903000899030008D0
:1000A00099030008990300089903000899030008C0
:1000B00099030008990300089903000899030008B0
:1000C00099030008990300089903000899030008A0
:1000D0009903000899030008610C000899030008BF
:1000E0009903000899030008990300089903000880
:1000F0009903000899030008990300089903000870
:10010000990300089903000899030008990300085F
:10011000990300089903000899030008990300084F
:10012000990300089903000899030008990300083F
:10013000990300089903000899030008990300082F
:10014000990300089903000899030008990300081F
:10015000990300089903000899030008990300080F
:1001600099030008990300089903000899030008FF
:1001700099030008990300089903000899030008EF
:1001800099030008990300089903000899030008DF
:1001900099030008990300089903000899030008CF
:1001A00099030008990300089903000899030008BF
:1001B00099030008990300089903000899030008AF
:1001C000990300089903000899030008990300089F
:1001D000990300089903000880B400AF2B4B1B68FB
:1001E0002A4A23F080731360284B1B6803F00073C6
:1001F000002B14BF01230023DBB2002B00D0F3E758
:10020000234B1B68224A23F00F031360204B1B680B
:100210001F4A43F0070313601D4B1B681C4A43F43D
:1002200080731360194BDB68184A43F00203D360F4
:10023000164BDB68154A23F4FE43D360134BDB688F
:10024000124A43F4AA43D360104BDB680F4A23F0F1
:10025000F003D3600D4BDB680C4A43F03003D360EE
:100260000A4BDB68094A43F08073D360074B1B6875
:10027000064A43F080731360044B9B68034A43F0C3
:100280000303936000BFBD4680BC7047001002406E
:100290000020024080B582B000AF164A164BD31A38
:1002A0009B103B6000237B607A683B689A4208D2CF
:1002B000114A7B6852F8233098477B6801337B6092
:1002C000F2E70E4A0E4BD31A9B103B6000237B6073
:1002D0007A683B689A4208D2094A7B6852F8233010
:1002E00098477B6801337B60F2E700BF0837BD4663
:1002F00080BD00BF040D0008040D0008080D0008B3
:10030000040D000880B584B000AFFFF765FF1D4BFA
:10031000FB601D4BBB601D4A1B4BD31A7B607B6887
:100320005A1E7A60002B14BF01230023DBB2002B7E
:1003300009D0FB685A1CFA601978BB685A1CBA606D
:100340000A461A70EBE7124BBB60124A104BD31AE5
:100350007B607B685A1E7A60002B14BF0123002348
:10036000DBB2002B05D0BB685A1CBA6000221A70A1
:10037000EFE7FFF78FFF00F069FA00BF1037BD46C7
:1003800080BD00BF220E00080000002000000020F9
:10039000000000203001002080B400AFFEE700BF65
:1003A00080B483B000AF78607B685A1E7A60002BFF
:1003B00014BF01230023DBB2002B00D0F4E700BF01
:1003C0000C37BD4680BC704780B400AF4FF09043FF
:1003D0001B684FF0904223F0020313604FF09043EC
:1003E0001B684FF0904243F00103136000BFBD460D
:1003F00080BC704780B400AF114BDB6C104A43F4F3
:100400008033D3640E4BDB6C0D4A43F00103D3649D
:100410000C4B1B680B4A43F001131360094B00227D
:100420009A60084B00225A614FF090431B684FF0CE
:10043000904243F47063136000BFBD4680BC7047B8
:10044000001002400008005080B483B000AF786014
:10045000054B9B6C044A43F00803936400BF0C37C0
:10046000BD4680BC704700BF0010024080B483B01E
:1004700000AF786039603B68102B05D1094B1B68D1
:10048000084A43F4800313603B68202B05D1054BD9
:100490001B68044A23F48003136000BF0C37BD4679
:1004A00080BC7047000C024080B483B000AF78601D
:1004B000094B1B6803F48003002B14BF01230023A6
:1004C000DBB2002B01D0102300E0202318460C37AC
:1004D000BD4680BC704700BF000C024080B483B0B2
:1004E00000AF786039603B68012B05D1094B1B6870
:1004F000084A23F4801313603B68022B05D1054B97
:100500001B68044A43F48013136000BF0C37BD46D8
:1005100080BC7047000C024080B483B000AF7860AC
:10052000094B1B6803F48013002B14BF0123002325
:10053000DBB2002B01D0022300E0012318460C3768
:10054000BD4680BC704700BF000C024080B483B041
:1005500000AF786039603B68102B05D1094B1B68F0
:10056000084A43F4001313603B68202B05D1054B68
:100570001B68044A23F40013136000BF0C37BD4608
:1005800080BC7047000C024080B483B000AF78603C
:10059000094B1B6803F40013002B14BF0123002335
:1005A000DBB2002B01D0102300E0202318460C37CB
:1005B000BD4680BC704700BF000C024080B483B0D1
:1005C00000AF786039603B68012B05D1094B1B688F
:1005D000084A23F4002313603B68022B05D1054B26
:1005E0001B68044A43F40023136000BF0C37BD4668
:1005F00080BC7047000C024080B483B000AF7860CC
:10060000094B1B6803F40023002B14BF01230023B4
:10061000DBB2002B01D0022300E0012318460C3787
:10062000BD4680BC704700BF000C024080B483B060
:1006300000AF78603960094B1B68084A23F4E06317
:100640001360064B1A683B681B02044913430B6096
:1006500000BF0C37BD4680BC704700BF000C024095
:1006600080B485B000AF7860064B1B6803F4E0638C
:10067000FB60FB681B12FB60FB6818461437BD4625
:1006800080BC7047000C024080B483B000AF78603B
:100690003960094B1B68084A23F0F0031360064BCE
:1006A0001A683B681B01044913430B6000BF0C37F9
:1006B000BD4680BC704700BF000C024080B485B0CE
:1006C00000AF7860064B1B6803F0F003FB60FB682B
:1006D0001B09FB60FB6818461437BD4680BC704799
:1006E000000C024080B483B000AF78603960084BE2
:1006F0001B68074A23F00F031360054B1A6804496F
:100700003B6813430B6000BF0C37BD4680BC70478D
:10071000000C024080B483B000AF7860044B1B68CB
:1007200003F00F0318460C37BD4680BC704700BF6E
:10073000000C024080B584B000AF78603960786802
:10074000FFF722FF0346202B0CBF01230023DBB25F
:10075000002B15D0184B9B681A463B681A607868C6
:10076000FFF74AFF0346022B0CBF01230023DBB235
:10077000002B1CD0104B9A683B6804331A6016E0BB
:100780000D4B9B68FB60FB689AB23B681A60786807
:10079000FFF732FF0346022B0CBF01230023DBB21D
:1007A000002B04D0FB681A0C3B6804331A6000BFAE
:1007B0001037BD4680BD00BF000C024080B584B03C
:1007C00000AF786039607868FFF7DEFE0346202BC3
:1007D0000CBF01230023DBB2002B14D03B681A6846
:1007E000194B5A607868FFF797FE0346022B0CBF3F
:1007F00001230023DBB2002B22D03B6804331A68AC
:10080000114B5A601CE03B681B689BB2FB60786828
:10081000FFF782FE0346022B0CBF01230023DBB24D
:10082000002B0AD03B6804331B68BB60BB681A040A
:100830000549FB6813444B6002E0034A3B68536080
:1008400000BF1037BD4680BD000C024080B582B0AD
:1008500000AF0023FB8000233B60FFF7B5FDFFF7EF
:10086000C9FD284800F080F82748FFF7EDFD00217A
:100870002548FFF7DBFE05212348FFF705FF02218E
:100880002148FFF72BFE02211F48FFF797FE20218A
:100890001D48FFF7EBFD20211B48FFF757FE012104
:1008A0001948FFF71FFF194B00221A60174B184A0F
:1008B0005A6062B61749134800F067F9B7F9063075
:1008C0009BB201339BB2FB80B7F9063003F50043BE
:1008D0003B603B681B041A460C4B1A600B490A48E4
:1008E000FFF76CFF0C490848FFF724FF0A4B1B6811
:1008F00003F10043094A1B0D9360084A3B681B093A
:100900005361DBE700000020180100201C010020DB
:1009100000FFFF7F080D00082401002000080050A0
:1009200080B582B000AF786039607B68012B0AD156
:100930003B684FF6FF72934205D1054800F05DFA1F
:10094000044800F064FA00BF0837BD4680BD00BF10
:10095000000000201801002080B500AF4FF6FF71A5
:100960000120FFF7DDFF80BD80B485B000AF786067
:100970004FF41653FB603A4A7B68136072B67B688B
:100980000022C3F8942000237A68C2F890307A6875
:10099000C2F88C307B6800229A6000237A6853602A
:1009A0007A6813602F4BDB6C2E4A43F00103D3644B
:1009B0002C4B9B6D2B4A43F4003393654FF09043CF
:1009C0001B684FF0904243F0A00313604FF0904338
:1009D0001B684FF0904223F0500313604FF0904398
:1009E0001B6A4FF0904223F47F4313624FF0904311
:1009F0001B6A4FF0904243F4EE4313621A4BBB6004
:100A0000BA68FB6892FBF3F3BB60164B9B6B154A0D
:100A100023F400339363154B00221A60134B00221A
:100A20005A60124B00229A60104ABB68D3600F4B89
:100A30004FF0FF321A620D4B6C221A600B4B1B6891
:100A40000A4A43F001031360094B5B68084A43F00C
:100A50004003536062B600BF1437BD4680BC704788
:100A60002C0100200010024080FE210A00440040BA
:100A700000E100E080B582B000AF78600B46FB700B
:100A80000F4B1B6803F00803002B0CBF012300234E
:100A9000DBB2002B09D00A4B1B68094A43F008035C
:100AA0001360074AFB78936205E07B68FA78194681
:100AB000786800F081F800BF0837BD4680BD00BFF0
:100AC0000044004080B582B000AF78607B688C3312
:100AD0001946786800F09AF8034618460837BD466C
:100AE00080BD80B586B000AF786039600A237B6135
:100AF0000023FB743B68002B05DA2D233B723B6817
:100B00005B423B6001E02B233B727B69002B20DDC5
:100B10003A68154B83FB02139910D317C91A0B4679
:100B20009B000B445B00D11ACBB23033D9B207F132
:100B300008027B6913440A461A703B680A4A82FB22
:100B400003129210DB17D31A3B607B69013B7B6178
:100B5000DBE707F108031946786800F016F800BFD4
:100B60001837BD4680BD00BF6766666680B582B037
:100B700000AF78600B46FB70FB7819467868FFF78A
:100B800079FF00BF0837BD4680BD80B582B000AF99
:100B9000786039603B681B78002B09D03B681B7874
:100BA00019467868FFF766FF3B6801333B60F1E761
:100BB00000BF0837BD4680BD80B485B000AFF86087
:100BC000B9601346FB71BB689B687F2B94BF012300
:100BD0000023DBB2002B14D072B6BB689B685A1C92
:100BE000BB689A60F979BB681B68BA6813440A4607
:100BF0001A73BB681B68013303F07F02BB681A607D
:100C000062B600BF1437BD4680BC704780B485B063
:100C100000AF786039600023FB733B689B68002B52
:100C200014BF01230023DBB2002B13D072B63B6844
:100C30009B685A1E3B689A603B685B683A6813443D
:100C40001B7BFB733B685B68013303F07F023B68EF
:100C50005A6062B6FB7B18461437BD4680BC7047AD
:100C600080B500AF254BDB6903F08003002B14BF78
:100C700001230023DBB2002B22D0204B1B6A1F4A2A
:100C800043F0600313621E4B1B689B68002B14BF6C
:100C900001230023DBB2002B0CD0194B1B68184A30
:100CA000126811461846FFF7B1FF03461A46134B68
:100CB0009A6205E0114B1B68104A23F00803136089
:100CC0000E4BDB6903F02003002B14BF012300232C
:100CD000DBB2002B10D00A4B1868094B1B688C3311
:100CE000064A526AD2B21946FFF766FF034B1B6AE7
:100CF000024A43F02003136200BF80BD004400405D
:100D00002C01002059090008436F72646963207345
:100D100069676E616C2067656E657261746F720DD4
:100D20000A004743433A2028474E552041726D2020
:100D3000456D62656464656420546F6F6C636861BF
:100D4000696E2031302D323032302D71342D6D618D
:100D50006A6F72292031302E322E312032303230FB
:100D600031313033202872656C656173652900412B
:100D70002D0000006165616269000123000000052B
:100D800037452D4D00060D074D09021204140115BB
:100D9000011703180119011A011E062201412D0035
:100DA00000006165616269000123000000053745AC
:100DB0002D4D00060D074D090212041401150117EF
:100DC00003180119011A011E062201412D0000001D
:100DD00061656162690001230000000537452D4D02
:100DE00000060D074D09021204140115011703181E
:090DF0000119011A011E0622017D
:100DFA0080B483B000AF78607B6818460C37BD4674
:040E0A0080BC7047F1
:100E0E0080B483B000AF78607B6818460C37BD465F
:040E1E0080BC7047DD
:0400000508000000EF
:00000001FF
